{
  "_format": "hh-sol-artifact-1",
  "contractName": "HarambeeCoin",
  "sourceName": "contracts/HarambeeCoin.sol",
  "abi": [
    {
      "inputs": [
        {
          "internalType": "uint256",
          "name": "initialSupply",
          "type": "uint256"
        }
      ],
      "stateMutability": "nonpayable",
      "type": "constructor"
    },
    {
      "anonymous": false,
      "inputs": [
        {
          "indexed": true,
          "internalType": "address",
          "name": "owner",
          "type": "address"
        },
        {
          "indexed": true,
          "internalType": "address",
          "name": "spender",
          "type": "address"
        },
        {
          "indexed": false,
          "internalType": "uint256",
          "name": "value",
          "type": "uint256"
        }
      ],
      "name": "Approval",
      "type": "event"
    },
    {
      "anonymous": false,
      "inputs": [
        {
          "indexed": true,
          "internalType": "address",
          "name": "to",
          "type": "address"
        },
        {
          "indexed": false,
          "internalType": "uint256",
          "name": "value",
          "type": "uint256"
        }
      ],
      "name": "Mint",
      "type": "event"
    },
    {
      "anonymous": false,
      "inputs": [
        {
          "indexed": true,
          "internalType": "address",
          "name": "from",
          "type": "address"
        },
        {
          "indexed": true,
          "internalType": "address",
          "name": "to",
          "type": "address"
        },
        {
          "indexed": false,
          "internalType": "uint256",
          "name": "value",
          "type": "uint256"
        }
      ],
      "name": "Transfer",
      "type": "event"
    },
    {
      "inputs": [
        {
          "internalType": "address",
          "name": "",
          "type": "address"
        },
        {
          "internalType": "address",
          "name": "",
          "type": "address"
        }
      ],
      "name": "allowance",
      "outputs": [
        {
          "internalType": "uint256",
          "name": "",
          "type": "uint256"
        }
      ],
      "stateMutability": "view",
      "type": "function"
    },
    {
      "inputs": [
        {
          "internalType": "address",
          "name": "spender",
          "type": "address"
        },
        {
          "internalType": "uint256",
          "name": "amount",
          "type": "uint256"
        }
      ],
      "name": "approve",
      "outputs": [
        {
          "internalType": "bool",
          "name": "",
          "type": "bool"
        }
      ],
      "stateMutability": "nonpayable",
      "type": "function"
    },
    {
      "inputs": [
        {
          "internalType": "address",
          "name": "",
          "type": "address"
        }
      ],
      "name": "balanceOf",
      "outputs": [
        {
          "internalType": "uint256",
          "name": "",
          "type": "uint256"
        }
      ],
      "stateMutability": "view",
      "type": "function"
    },
    {
      "inputs": [
        {
          "internalType": "uint256",
          "name": "amount",
          "type": "uint256"
        }
      ],
      "name": "burn",
      "outputs": [],
      "stateMutability": "nonpayable",
      "type": "function"
    },
    {
      "inputs": [],
      "name": "decimals",
      "outputs": [
        {
          "internalType": "uint8",
          "name": "",
          "type": "uint8"
        }
      ],
      "stateMutability": "view",
      "type": "function"
    },
    {
      "inputs": [
        {
          "internalType": "address",
          "name": "to",
          "type": "address"
        },
        {
          "internalType": "uint256",
          "name": "amount",
          "type": "uint256"
        }
      ],
      "name": "mint",
      "outputs": [],
      "stateMutability": "nonpayable",
      "type": "function"
    },
    {
      "inputs": [],
      "name": "name",
      "outputs": [
        {
          "internalType": "string",
          "name": "",
          "type": "string"
        }
      ],
      "stateMutability": "view",
      "type": "function"
    },
    {
      "inputs": [],
      "name": "owner",
      "outputs": [
        {
          "internalType": "address",
          "name": "",
          "type": "address"
        }
      ],
      "stateMutability": "view",
      "type": "function"
    },
    {
      "inputs": [],
      "name": "symbol",
      "outputs": [
        {
          "internalType": "string",
          "name": "",
          "type": "string"
        }
      ],
      "stateMutability": "view",
      "type": "function"
    },
    {
      "inputs": [],
      "name": "totalSupply",
      "outputs": [
        {
          "internalType": "uint256",
          "name": "",
          "type": "uint256"
        }
      ],
      "stateMutability": "view",
      "type": "function"
    },
    {
      "inputs": [
        {
          "internalType": "address",
          "name": "to",
          "type": "address"
        },
        {
          "internalType": "uint256",
          "name": "amount",
          "type": "uint256"
        }
      ],
      "name": "transfer",
      "outputs": [
        {
          "internalType": "bool",
          "name": "",
          "type": "bool"
        }
      ],
      "stateMutability": "nonpayable",
      "type": "function"
    },
    {
      "inputs": [
        {
          "internalType": "address",
          "name": "from",
          "type": "address"
        },
        {
          "internalType": "address",
          "name": "to",
          "type": "address"
        },
        {
          "internalType": "uint256",
          "name": "amount",
          "type": "uint256"
        }
      ],
      "name": "transferFrom",
      "outputs": [
        {
          "internalType": "bool",
          "name": "",
          "type": "bool"
        }
      ],
      "stateMutability": "nonpayable",
      "type": "function"
    }
  ],
  "bytecode": "0x60806040526040518060400160405280600c81526020017f486172616d626565436f696e000000000000000000000000000000000000000081525060009081610048919061044a565b506040518060400160405280600381526020017f48424300000000000000000000000000000000000000000000000000000000008152506001908161008d919061044a565b506012600260006101000a81548160ff021916908360ff1602179055503480156100b657600080fd5b50604051611b44380380611b4483398181016040528101906100d8919061054d565b33600460006101000a81548173ffffffffffffffffffffffffffffffffffffffff021916908373ffffffffffffffffffffffffffffffffffffffff160217905550600260009054906101000a900460ff16600a61013591906106e9565b816101409190610734565b600381905550600354600560003373ffffffffffffffffffffffffffffffffffffffff1673ffffffffffffffffffffffffffffffffffffffff168152602001908152602001600020819055503373ffffffffffffffffffffffffffffffffffffffff16600073ffffffffffffffffffffffffffffffffffffffff167fddf252ad1be2c89b69c2b068fc378daa952ba7f163c4a11628f55a4df523b3ef6003546040516101ec9190610785565b60405180910390a3506107a0565b600081519050919050565b7f4e487b7100000000000000000000000000000000000000000000000000000000600052604160045260246000fd5b7f4e487b7100000000000000000000000000000000000000000000000000000000600052602260045260246000fd5b6000600282049050600182168061027b57607f821691505b60208210810361028e5761028d610234565b5b50919050565b60008190508160005260206000209050919050565b60006020601f8301049050919050565b600082821b905092915050565b6000600883026102f67fffffffffffffffffffffffffffffffffffffffffffffffffffffffffffffffff826102b9565b61030086836102b9565b95508019841693508086168417925050509392505050565b6000819050919050565b6000819050919050565b600061034761034261033d84610318565b610322565b610318565b9050919050565b6000819050919050565b6103618361032c565b61037561036d8261034e565b8484546102c6565b825550505050565b600090565b61038a61037d565b610395818484610358565b505050565b5b818110156103b9576103ae600082610382565b60018101905061039b565b5050565b601f8211156103fe576103cf81610294565b6103d8846102a9565b810160208510156103e7578190505b6103fb6103f3856102a9565b83018261039a565b50505b505050565b600082821c905092915050565b600061042160001984600802610403565b1980831691505092915050565b600061043a8383610410565b9150826002028217905092915050565b610453826101fa565b67ffffffffffffffff81111561046c5761046b610205565b5b6104768254610263565b6104818282856103bd565b600060209050601f8311600181146104b457600084156104a2578287015190505b6104ac858261042e565b865550610514565b601f1984166104c286610294565b60005b828110156104ea578489015182556001820191506020850194506020810190506104c5565b868310156105075784890151610503601f891682610410565b8355505b6001600288020188555050505b505050505050565b600080fd5b61052a81610318565b811461053557600080fd5b50565b60008151905061054781610521565b92915050565b6000602082840312156105635761056261051c565b5b600061057184828501610538565b91505092915050565b7f4e487b7100000000000000000000000000000000000000000000000000000000600052601160045260246000fd5b60008160011c9050919050565b6000808291508390505b6001851115610600578086048111156105dc576105db61057a565b5b60018516156105eb5780820291505b80810290506105f9856105a9565b94506105c0565b94509492505050565b60008261061957600190506106d5565b8161062757600090506106d5565b816001811461063d576002811461064757610676565b60019150506106d5565b60ff8411156106595761065861057a565b5b8360020a9150848211156106705761066f61057a565b5b506106d5565b5060208310610133831016604e8410600b84101617156106ab5782820a9050838111156106a6576106a561057a565b5b6106d5565b6106b884848460016105b6565b925090508184048111156106cf576106ce61057a565b5b81810290505b9392505050565b600060ff82169050919050565b60006106f482610318565b91506106ff836106dc565b925061072c7fffffffffffffffffffffffffffffffffffffffffffffffffffffffffffffffff8484610609565b905092915050565b600061073f82610318565b915061074a83610318565b925082820261075881610318565b9150828204841483151761076f5761076e61057a565b5b5092915050565b61077f81610318565b82525050565b600060208201905061079a6000830184610776565b92915050565b611395806107af6000396000f3fe608060405234801561001057600080fd5b50600436106100b45760003560e01c806342966c681161007157806342966c681461018f57806370a08231146101ab5780638da5cb5b146101db57806395d89b41146101f9578063a9059cbb14610217578063dd62ed3e14610247576100b4565b806306fdde03146100b9578063095ea7b3146100d757806318160ddd1461010757806323b872dd14610125578063313ce5671461015557806340c10f1914610173575b600080fd5b6100c1610277565b6040516100ce9190610e0f565b60405180910390f35b6100f160048036038101906100ec9190610eca565b610305565b6040516100fe9190610f25565b60405180910390f35b61010f6103f7565b60405161011c9190610f4f565b60405180910390f35b61013f600480360381019061013a9190610f6a565b6103fd565b60405161014c9190610f25565b60405180910390f35b61015d61075d565b60405161016a9190610fd9565b60405180910390f35b61018d60048036038101906101889190610eca565b610770565b005b6101a960048036038101906101a49190610ff4565b610927565b005b6101c560048036038101906101c09190611021565b610a81565b6040516101d29190610f4f565b60405180910390f35b6101e3610a99565b6040516101f0919061105d565b60405180910390f35b610201610abf565b60405161020e9190610e0f565b60405180910390f35b610231600480360381019061022c9190610eca565b610b4d565b60405161023e9190610f25565b60405180910390f35b610261600480360381019061025c9190611078565b610d5a565b60405161026e9190610f4f565b60405180910390f35b60008054610284906110e7565b80601f01602080910402602001604051908101604052809291908181526020018280546102b0906110e7565b80156102fd5780601f106102d2576101008083540402835291602001916102fd565b820191906000526020600020905b8154815290600101906020018083116102e057829003601f168201915b505050505081565b600081600660003373ffffffffffffffffffffffffffffffffffffffff1673ffffffffffffffffffffffffffffffffffffffff16815260200190815260200160002060008573ffffffffffffffffffffffffffffffffffffffff1673ffffffffffffffffffffffffffffffffffffffff168152602001908152602001600020819055508273ffffffffffffffffffffffffffffffffffffffff163373ffffffffffffffffffffffffffffffffffffffff167f8c5be1e5ebec7d5bd14f71427d1e84f3dd0314c0f7b2291e5b200ac8c7c3b925846040516103e59190610f4f565b60405180910390a36001905092915050565b60035481565b60008073ffffffffffffffffffffffffffffffffffffffff168373ffffffffffffffffffffffffffffffffffffffff160361046d576040517f08c379a000000000000000000000000000000000000000000000000000000000815260040161046490611164565b60405180910390fd5b81600560008673ffffffffffffffffffffffffffffffffffffffff1673ffffffffffffffffffffffffffffffffffffffff1681526020019081526020016000205410156104ef576040517f08c379a00000000000000000000000000000000000000000000000000000000081526004016104e6906111d0565b60405180910390fd5b81600660008673ffffffffffffffffffffffffffffffffffffffff1673ffffffffffffffffffffffffffffffffffffffff16815260200190815260200160002060003373ffffffffffffffffffffffffffffffffffffffff1673ffffffffffffffffffffffffffffffffffffffff1681526020019081526020016000205410156105ae576040517f08c379a00000000000000000000000000000000000000000000000000000000081526004016105a59061123c565b60405180910390fd5b81600660008673ffffffffffffffffffffffffffffffffffffffff1673ffffffffffffffffffffffffffffffffffffffff16815260200190815260200160002060003373ffffffffffffffffffffffffffffffffffffffff1673ffffffffffffffffffffffffffffffffffffffff168152602001908152602001600020600082825461063a919061128b565b9250508190555081600560008673ffffffffffffffffffffffffffffffffffffffff1673ffffffffffffffffffffffffffffffffffffffff1681526020019081526020016000206000828254610690919061128b565b9250508190555081600560008573ffffffffffffffffffffffffffffffffffffffff1673ffffffffffffffffffffffffffffffffffffffff16815260200190815260200160002060008282546106e691906112bf565b925050819055508273ffffffffffffffffffffffffffffffffffffffff168473ffffffffffffffffffffffffffffffffffffffff167fddf252ad1be2c89b69c2b068fc378daa952ba7f163c4a11628f55a4df523b3ef8460405161074a9190610f4f565b60405180910390a3600190509392505050565b600260009054906101000a900460ff1681565b600460009054906101000a900473ffffffffffffffffffffffffffffffffffffffff1673ffffffffffffffffffffffffffffffffffffffff163373ffffffffffffffffffffffffffffffffffffffff1614610800576040517f08c379a00000000000000000000000000000000000000000000000000000000081526004016107f79061133f565b60405180910390fd5b806003600082825461081291906112bf565b9250508190555080600560008473ffffffffffffffffffffffffffffffffffffffff1673ffffffffffffffffffffffffffffffffffffffff168152602001908152602001600020600082825461086891906112bf565b925050819055508173ffffffffffffffffffffffffffffffffffffffff167f0f6798a560793a54c3bcfe86a93cde1e73087d944c0ea20544137d4121396885826040516108b59190610f4f565b60405180910390a28173ffffffffffffffffffffffffffffffffffffffff16600073ffffffffffffffffffffffffffffffffffffffff167fddf252ad1be2c89b69c2b068fc378daa952ba7f163c4a11628f55a4df523b3ef8360405161091b9190610f4f565b60405180910390a35050565b80600560003373ffffffffffffffffffffffffffffffffffffffff1673ffffffffffffffffffffffffffffffffffffffff1681526020019081526020016000205410156109a9576040517f08c379a00000000000000000000000000000000000000000000000000000000081526004016109a0906111d0565b60405180910390fd5b80600560003373ffffffffffffffffffffffffffffffffffffffff1673ffffffffffffffffffffffffffffffffffffffff16815260200190815260200160002060008282546109f8919061128b565b925050819055508060036000828254610a11919061128b565b92505081905550600073ffffffffffffffffffffffffffffffffffffffff163373ffffffffffffffffffffffffffffffffffffffff167fddf252ad1be2c89b69c2b068fc378daa952ba7f163c4a11628f55a4df523b3ef83604051610a769190610f4f565b60405180910390a350565b60056020528060005260406000206000915090505481565b600460009054906101000a900473ffffffffffffffffffffffffffffffffffffffff1681565b60018054610acc906110e7565b80601f0160208091040260200160405190810160405280929190818152602001828054610af8906110e7565b8015610b455780601f10610b1a57610100808354040283529160200191610b45565b820191906000526020600020905b815481529060010190602001808311610b2857829003601f168201915b505050505081565b60008073ffffffffffffffffffffffffffffffffffffffff168373ffffffffffffffffffffffffffffffffffffffff1603610bbd576040517f08c379a0000000000000000000000000000000000000000000000000000000008152600401610bb490611164565b60405180910390fd5b81600560003373ffffffffffffffffffffffffffffffffffffffff1673ffffffffffffffffffffffffffffffffffffffff168152602001908152602001600020541015610c3f576040517f08c379a0000000000000000000000000000000000000000000000000000000008152600401610c36906111d0565b60405180910390fd5b81600560003373ffffffffffffffffffffffffffffffffffffffff1673ffffffffffffffffffffffffffffffffffffffff1681526020019081526020016000206000828254610c8e919061128b565b9250508190555081600560008573ffffffffffffffffffffffffffffffffffffffff1673ffffffffffffffffffffffffffffffffffffffff1681526020019081526020016000206000828254610ce491906112bf565b925050819055508273ffffffffffffffffffffffffffffffffffffffff163373ffffffffffffffffffffffffffffffffffffffff167fddf252ad1be2c89b69c2b068fc378daa952ba7f163c4a11628f55a4df523b3ef84604051610d489190610f4f565b60405180910390a36001905092915050565b6006602052816000526040600020602052806000526040600020600091509150505481565b600081519050919050565b600082825260208201905092915050565b60005b83811015610db9578082015181840152602081019050610d9e565b60008484015250505050565b6000601f19601f8301169050919050565b6000610de182610d7f565b610deb8185610d8a565b9350610dfb818560208601610d9b565b610e0481610dc5565b840191505092915050565b60006020820190508181036000830152610e298184610dd6565b905092915050565b600080fd5b600073ffffffffffffffffffffffffffffffffffffffff82169050919050565b6000610e6182610e36565b9050919050565b610e7181610e56565b8114610e7c57600080fd5b50565b600081359050610e8e81610e68565b92915050565b6000819050919050565b610ea781610e94565b8114610eb257600080fd5b50565b600081359050610ec481610e9e565b92915050565b60008060408385031215610ee157610ee0610e31565b5b6000610eef85828601610e7f565b9250506020610f0085828601610eb5565b9150509250929050565b60008115159050919050565b610f1f81610f0a565b82525050565b6000602082019050610f3a6000830184610f16565b92915050565b610f4981610e94565b82525050565b6000602082019050610f646000830184610f40565b92915050565b600080600060608486031215610f8357610f82610e31565b5b6000610f9186828701610e7f565b9350506020610fa286828701610e7f565b9250506040610fb386828701610eb5565b9150509250925092565b600060ff82169050919050565b610fd381610fbd565b82525050565b6000602082019050610fee6000830184610fca565b92915050565b60006020828403121561100a57611009610e31565b5b600061101884828501610eb5565b91505092915050565b60006020828403121561103757611036610e31565b5b600061104584828501610e7f565b91505092915050565b61105781610e56565b82525050565b6000602082019050611072600083018461104e565b92915050565b6000806040838503121561108f5761108e610e31565b5b600061109d85828601610e7f565b92505060206110ae85828601610e7f565b9150509250929050565b7f4e487b7100000000000000000000000000000000000000000000000000000000600052602260045260246000fd5b600060028204905060018216806110ff57607f821691505b602082108103611112576111116110b8565b5b50919050565b7f496e76616c696420616464726573730000000000000000000000000000000000600082015250565b600061114e600f83610d8a565b915061115982611118565b602082019050919050565b6000602082019050818103600083015261117d81611141565b9050919050565b7f496e73756666696369656e742062616c616e6365000000000000000000000000600082015250565b60006111ba601483610d8a565b91506111c582611184565b602082019050919050565b600060208201905081810360008301526111e9816111ad565b9050919050565b7f416c6c6f77616e63652065786365656465640000000000000000000000000000600082015250565b6000611226601283610d8a565b9150611231826111f0565b602082019050919050565b6000602082019050818103600083015261125581611219565b9050919050565b7f4e487b7100000000000000000000000000000000000000000000000000000000600052601160045260246000fd5b600061129682610e94565b91506112a183610e94565b92508282039050818111156112b9576112b861125c565b5b92915050565b60006112ca82610e94565b91506112d583610e94565b92508282019050808211156112ed576112ec61125c565b5b92915050565b7f4e6f7420746865206f776e657200000000000000000000000000000000000000600082015250565b6000611329600d83610d8a565b9150611334826112f3565b602082019050919050565b600060208201905081810360008301526113588161131c565b905091905056fea2646970667358221220d2b93bd7f7ea09f242e1ba3ff1b916d3265585d643ec7902fc7176e2e9dc6d5164736f6c634300081c0033",
  "linkReferences": {},
  "deployedLinkReferences": {}
}